:020000040800F2
:1000000020BC0120713400082105000823050008E8
:10001000270500082B0500082F0500080000000038
:100020000000000000000000000000003305000890
:1000300035050008000000003705000839050008F4
:100040008B3400088B3400088B340008BF0F000885
:100050008B3400088B3400088B3400088B34000884
:100060008B3400088B3400088B3400088B34000874
:100070008B3400088B3400088B3400088B34000864
:100080008B3400088B3400088B3400088B34000854
:100090008B3400088B3400088B3400088B34000844
:1000A0008B3400088B3400088B3400088B34000834
:1000B0008B3400088B340008556B00088B34000823
:1000C0008B3400088B3400088B3400088B34000814
:1000D0008B340008D33300088B3400080930000843
:1000E0008B340008830F00088B3400088B34000821
:1000F0008B3400088B3400088B3400088B340008E4
:100100008B340008452D00088B3400088B34000820
:100110008B3400088B3400088B34000891310008C0
:100120008B3400088B3400088B3400088B340008B3
:100130008B3400088B3400088B3400088B340008A3
:100140008B3400088B3400088B3400088B34000893
:100150008B3400088B3400088B3400088B34000883
:100160008B3400088B3400088B3400088B34000873
:100170008B3400088B3400088B3400088B34000863
:100180008B3400088B34000800F002F800F0B2F85D
:100190000AA090E8000C82448344AAF10107DA45E2
:1001A00001D100F0A7F8AFF2090EBAE80F0013F082
:1001B000010F18BFFB1A43F001031847C4AD00003C
:1001C000E4AD00000A444FF0000C10F8013B13F0BE
:1001D000070408BF10F8014B1D1108BF10F8015BA0
:1001E000641E05D010F8016B641E01F8016BF9D193
:1001F00013F0080F1EBF10F8014BAD1C0C1B09D1EA
:100200006D1E58BF01F801CBFAD505E014F8016B5B
:1002100001F8016B6D1EF9D59142D6D370470000ED
:100220000023002400250026103A28BF78C1FBD8FF
:10023000520728BF30C148BF0B6070476E2908F0D5
:100240004480702907F08D86662909F07881652938
:1002500009F07581672909F072816129AFF3008087
:1002600003681B0A28BF41F08001692907F0FE8559
:10027000642907F0FB85752907F0F8856F2908F0D8
:100280003C81782907F05986E92908F0D780E429CC
:1002900008F0D480F52908F0D180EF2908F03981E1
:1002A000F82907F058860368DB0928BF41F0800170
:1002B000632908F04680732908F04B80E32908F091
:1002C000C383F32908F0C883002070471FB509F0E5
:1002D00031F908F017FC04000020002109F014F99E
:1002E000401C60600020002109F0F8F8E0601FBDAC
:1002F00010B510BD08F0D8FB1146FFF7E7FF00F07E
:1003000049F808F0B5FC03B4FFF7F2FF03BC03F0B3
:1003100001F8000030BF72B6704762B6704780F3D4
:100320000888704710B5464890F8560030B101284B
:1003300008D002280AD0032810D10BE041A007F012
:1003400023FD0BE045A007F01FFD07E049A007F0E3
:100350001BFD03E04DA007F017FD00BF00BF3848AC
:1003600090F82C104FA007F00FFD3548B0F854104E
:1003700053A007F009FD3248D0E91220030343EAF5
:10038000125153A007F000FD2D48016D56A007F053
:10039000FBFC10BD00254FF4A06003F089F8A820F5
:1003A00002F036FF4FF4E13002F0C1FF4FF4E130CC
:1003B00002F05AFE524841685420884702F0A2FDDC
:1003C00000F0C4F900F0ADFB00F0C4FC002007F021
:1003D0004CF9022007F049F90F23132210210120C4
:1003E00000F0FDFC00231A460621032000F044FD26
:1003F000102344A200210A2000F064FB00F0EBF976
:100400001DE0012002F09CFD0446012C02D100F009
:1004100021FA01250DB100F0E9FD3E48007860B1F8
:100420003D48006840F25231884203DD00203B49DC
:10043000086002E001203949086007F0D7FBE0E7D7
:10044000800600204361726420547970653A5344F9
:1004500053432056312E310D0A000000436172646F
:1004600020547970653A534453432056322E300D50
:100470000A0000004361726420547970653A534465
:1004800048432056322E300D0A000000436172644A
:1004900020547970653A4D4D4320436172640D0AD2
:1004A0000000000043617264204D616E75666163F7
:1004B000747572657249443A25640D0A00000000A3
:1004C00043617264205243413A25640D0A000000E2
:1004D000436172642043617061636974793A256491
:1004E000204D420D0A0000004361726420426C6F8F
:1004F000636B53697A653A25640D0A0D0A000000A2
:10050000C00000206465636962656C6D6574657226
:100510000000000018000020280000209C0240423B
:10052000704700BFFEE700BFFEE700BFFEE700BF69
:10053000FEE7704770477047704700000CB5002019
:10054000019000907648006840F48030744908605B
:1005500000BF7348006800F4003000900198401C10
:100560000190009818B90198B0F5A04FF1D16C48EE
:10057000006800F4003010B10120009001E000207C
:1005800000900098012846D165484030006840F04E
:1005900080506349403108606248006840F4404040
:1005A000604908605E48083000685D4908310860AD
:1005B0000846006840F4004008600846006840F4BF
:1005C000A05008605848091F0860081F006840F0E4
:1005D0008070091F086000BF5148006800F000707B
:1005E0000028F9D040F20570504908604C480830A6
:1005F000006820F003004A49083108600846006896
:1006000040F00200086000BF45480830006800F074
:100610000C000828F8D10CBD10B54548006840F41E
:100620007000434908603E48006840F001003C49C2
:10063000086000203A4908310860394800683D499F
:100640000840374908603C48091D0860081F0068D9
:1006500020F48020091F0860002031490C31086017
:10066000FFF76CFF4FF0006031498039086010BD22
:1006700070B500200022022300240221284D0835F5
:100680002D6805F00C0020B1042806D0082834D1CC
:1006900007E02A4D2A4E356033E02A4D284E35605A
:1006A0002FE01F4D2D1D2D68C5F380541C4D2D1DB1
:1006B0002D6805F03F0154B1224DB5FBF1F5184E00
:1006C000361D3668C6F3881605FB06F209E01B4D99
:1006D000B5FBF1F5124E361D3668C6F3881605FBDC
:1006E00006F20F4D2D1D2D68C5F301456D1C6B00E5
:1006F000B2FBF3F5124E356003E0104D104E35603D
:1007000000BF00BF064D08352D68C5F303150E4E1A
:10071000705D0B4D2D68C540094E356070BD000001
:10072000003802400070004008544007003C02407E
:1007300088ED00E0FFFFF6FE103000240024F400F6
:100740000000002000127A00040000201CB50121E6
:10075000084603F041FAC020009001208DF8040003
:1007600000208DF8060003208DF8050001208DF88B
:1007700007006946034802F091FFC021014803F0D9
:1007800009F81CBD0000024010B5FE4B19600023A3
:10079000FD4CC4F89C32002214E00023FB4C236083
:1007A00000F080031BB10123241D236003E000231C
:1007B000F64C241D23600123F44C23604306180EDD
:1007C000531CDAB2082AE8DB0123F14C2360F14C18
:1007D000C4F8983210BD30B500241CE004F1B0011B
:1007E000C8B20021FFF7D0FF00210846FFF7CCFF79
:1007F00000211020FFF7C8FF002508E0E64901EBC3
:10080000C501085D0121FFF7BFFF681CC5B2802D3F
:10081000F4DB601CC4B2082CE0DB30BD00B5002165
:100820008D20FFF7B1FF00211420FFF7ADFF00215D
:10083000AF20FFF7A9FF00BD00B500218D20FFF715
:10084000A3FF00211020FFF79FFF0021AE20FFF73C
:100850009BFF00BD30B500240CE0002506E0002021
:10086000CD4901EBC5010855681CC5B2802DF6DBEA
:10087000601CC4B2082CF0DBFFF7ADFF30BDF0B553
:10088000144600267F2801DC3F2900DDF0BD0B4621
:10089000CF1701EB5777FF10C7F10707FAB2CF1751
:1008A00001EB5777FF10A1EBC707FDB2C5F10707B2
:1008B0000123BB40DEB24CB1B74B03EBC0039B5CE2
:1008C0003343B54F07EBC007BB5408E0B24B03EB13
:1008D000C0039B5CB343B04F07EBC007BB5400BFE2
:1008E000D4E72DE9F04706460F4690469946DDF8D5
:1008F00020A034460CE03D4606E0524629462046FC
:10090000FFF7BDFF681CC5B24D45F6DD601CC4B2E3
:100910004445F0DDFFF75FFFBDE8F0872DE9F84FB4
:1009200080460F4616461C46BA462046E31704EB9F
:100930005373DB1021464FEAE47C04EB5C7C4FEA06
:10094000EC0CA4EBCC0CBCF1000F02D04FF0010C6E
:1009500001E04FF0000C6344224604EBD27C4FEAE6
:100960006C0C03FB0CF303F0FF0BA6F12000C6B2E6
:1009700000254EE00C2C07D106EB4600874901EB21
:100980008000405D009013E0102C05D1844800EBFE
:100990000610405D00900BE0182C07D106EBC60056
:1009A000804901EB8000405D009001E0BDE8F88FD8
:1009B0004FF0000927E0009800F0800028B1394688
:1009C00040460A9AFFF75BFF09E00A9808B9012040
:1009D00000E00020024639464046FFF750FF0098ED
:1009E0004006000E0090781CC7B2A7EB0A00A04298
:1009F00005D1574608F1010000F0FF0806E009F1B3
:100A0000010000F0FF09B9F1080FD4DB00BF681C3A
:100A1000C5B25D45AEDB00BFC8E710B50246012098
:100A200000E050430B1EA1F10104E1B2F9D110BD69
:100A30002DE9FF4F81B0074691461E460E9D4FF0AF
:100A4000000A002439E0301B401EC1B20A20FFF723
:100A5000E4FFB9FBF0F00A21B0FBF1F201FB120850
:100A6000BAF1000F16D1701EA04213DDB8F1000FCD
:100A70000ED10120AB4605EBDB71491001FB04717F
:100A80000090C8B22B4620220299FFF747FF12E0E0
:100A90004FF0010A0120AB4605EBDB71491001FB69
:100AA00004710090C8B208F13001CAB22B46029915
:100AB000FFF734FF00BF601CC4B2B442C3DB05B013
:100AC000BDE8F08FF8B506460F4615461C4621E0F6
:100AD00004EBD4714910C1F18001B14202DA002661
:100AE0003819C7B2C4F14000B84204DA0020064603
:100AF0000746FFF7AFFE012000902A7823463946CB
:100B00003046FFF70BFF204604EBD07106EB610186
:100B1000CEB26D1C28787E2802DC28782028D7DA0F
:100B2000F8BD1CB501215F2003F056F8802000902D
:100B300001208DF8040000208DF8060003208DF8B8
:100B4000050001208DF807006946174802F0A6FD50
:100B5000C02000906946154802F0A0FD502000908A
:100B60006946134802F09AFD01200849091D0860F2
:100B70001049C1F89802064908600249086000203F
:100B8000004919E098824142008040429802414267
:100B90009C82404200804142EC01002042950008C6
:100BA000B6990008A69F0008000402400008024011
:100BB000000C02400000414208390860642002F045
:100BC00089FB01203449C1F890020021AE20FFF7D3
:100BD000DBFD0021D520FFF7D7FD00215020FFF7D6
:100BE000D3FD0021A820FFF7CFFD00213F20FFF714
:100BF000CBFD0021D320FFF7C7FD00210846FFF7FA
:100C0000C3FD00214020FFF7BFFD00218D20FFF72D
:100C1000BBFD00211420FFF7B7FD00212020FFF7C6
:100C2000B3FD00210220FFF7AFFD0021A120FFF757
:100C3000ABFD0021C020FFF7A7FD0021DA20FFF760
:100C4000A3FD00211220FFF79FFD00218120FFF767
:100C50009BFD0021EF20FFF797FD0021D920FFF732
:100C600093FD0021F120FFF78FFD0021DB20FFF72E
:100C70008BFD00213020FFF787FD0021A420FFF726
:100C800083FD0021A620FFF77FFD0021AF20FFF7A5
:100C90007BFDFFF7DFFD1CBD008041427EB50246B3
:100CA0000020002300BF0CE00A24B2FBF4F504FB93
:100CB000152430340DF80040441CE0B20A24B2FB85
:100CC000F4F2002AF0D10346002006E01C1A641E4C
:100CD0001DF804400C54441CE0B29842F6DB20B9E5
:100CE00030260446451CE8B20E5500240C547EBD47
:100CF00010B502460B460020002104E0545C044479
:100D0000E0B24C1CE1B29942F8DB10BDF8B50446E4
:100D10000D4617461E468DF800408DF801508DF89F
:100D200002708DF803606946002003F035FCF8BDC1
:100D3000F8B504460D4617461E468DF802708DF82C
:100D400001508DF800608DF803406946002003F0E3
:100D5000C1FCF8BD3EB541F6FF740121080702F061
:100D600084FF012004F0C7FF002004F071F845F271
:100D70005001884231D0012002F0CBFD04E0601C1C
:100D800084B20A2002F0A6FA412002F07BFD00287E
:100D9000F5D00CB901203EBD4FF4807002F0BAFED0
:100DA000012002F0D2FE7F200190FF20029000205F
:100DB0000090684603F055FB00231A4612211020CC
:100DC000FFF7A4FF0323192207211220FFF7B0FF2A
:100DD00045F25001002004F02EF80020DBE7F0B5CA
:100DE00087B004460D4616461F4600214FF480701A
:100DF00003F0B0FD8DF800508DF801608DF80270A1
:100E000000208DF803008DF810404FF00040029054
:100E10000098019001AA4FF48071002003F0E3FCD8
:100E20004FF4805004F0F6F84FF4003005F08DF8E0
:100E30000121080304F082F80121080203F08AFD71
:100E40004FF40030059000208DF8180008208DF830
:100E5000190001208DF81A0005A805F005F82920D1
:100E6000B74908700220487088700120C870084691
:100E700002F023FB07B0F0BDF0B587B004460D4685
:100E800016461F4600214FF4007003F063FD8DF8F5
:100E900000508DF801608DF8027000208DF803007D
:100EA0008DF810404FF08040039040000290009871
:100EB000019001AA4FF40071002003F094FC4FF45C
:100EC000005004F0A7F84FF4003005F03EF801217F
:100ED000480304F033F80121480203F03BFD4FF4CE
:100EE0000030059000208DF8180008208DF81900BA
:100EF00001208DF81A0005A804F0B6FF29209049BA
:100F000008700220487088700120C870084602F0FE
:100F1000D4FA07B0F0BD7CB505460C46002003F0BE
:100F20009EFD284603F076FD204603F088FD4FF431
:100F3000804004F06FF84FF4800005F006F80121BE
:100F4000880303F0FBFF012003F089FD4FF48000CC
:100F5000009000208DF8040008208DF80500012085
:100F60008DF80600684604F07FFF0320744908707E
:100F70000220487088700120C870084602F09DFA6F
:100F80007CBD10B54FF4807004F007F8012805D13E
:100F9000000204F013F801206A4908704FF4007051
:100FA00003F0FBFF012805D1400204F007F8002000
:100FB000644908704FF4003004F0C7FF10BD10B54D
:100FC0004FF4806003F0E9FF01280AD1800203F0AA
:100FD000F5FF5D48006808B9012000E000205A498B
:100FE00008604FF4800004F0B0FF10BD38B55748DA
:100FF00000780A2190FBF1F201FB1200002834D1A5
:10100000534903F033FB52488078009050484378AE
:10101000027850A1544806F0C3FE0C23524A142112
:101020000846FFF74FFD5149002003F0B9FB4F4838
:10103000807800904D484378C2784DA14A4806F028
:10104000AFFE0C23484A24211420FFF73BFD4748FC
:1010500002784DA1444806F0A3FE0C23424A3421F5
:101060003C20FFF72FFDFFF7B6FB38480078401C07
:101070003649087008460078142190FBF1F201FB14
:10108000120038B93048006808B9012000E000209B
:101090002D4908600A2002F01DF93D48007800281B
:1010A0004DD03C48807810B1012843D100E042E0A7
:1010B000384800793849086008460068000208602E
:1010C0003448C07809680844334908600846006815
:1010D0000A2190FBF1F40C200323224634210090D6
:1010E0000020FFF7A5FC0C232CA234211320FFF7CE
:1010F000E9FC294800680A2190FBF1F201FB120487
:101100000C2003232246342100901520FFF790FC89
:101110000C2323A234212620FFF7D4FC0C20032328
:1011200000900848027834216420FFF781FCFFF723
:1011300052FB00E000BF00BF00201549087038BD19
:1011400014000020180000209802404221000020D6
:101150001900002054696D653A253032643A253013
:1011600032643A2530326400EC0500201D00002076
:10117000446174653A3230253032642D2530326452
:101180002D253032640000005765656B3A256400F8
:101190004A00002044000020280000202E0000000B
:1011A000644200000020FE490860091D0860091D16
:1011B0000860091D0860FA4924310860091D0860AB
:1011C000091D0860F748F649383108600020091DFC
:1011D0000860704701460020012900D011B9F24B88
:1011E000197000E0262070470146ED4A121D106874
:1011F00020F0FF0008431060704770B5044606E019
:10120000E7483430056805F0450000B100E0F7E735
:1012100000BF042005F03EF920B1042005F045F997
:10122000032070BD012005F035F920B1012005F043
:101230003CF90120F5E7DA4810300068A04201D0FF
:101240001020EEE740F2FF5005F02FF9D44814309B
:10125000006808210840C0B2E3E72DE9FC410746D9
:101260000D46002600240020009001900820CF4960
:10127000086010204860402088600020C8604FF45B
:1012800080600861084605F072F81020FFF7B5FF8E
:10129000044614B12046BDE8FC81C548008800041E
:1012A000C249086037204860402088600020C8603C
:1012B0004FF480600861084605F059F83720FFF7C1
:1012C0009CFF04460CB12046E5E74FF0FF30B949DA
:1012D000086008204860302088600220C860002034
:1012E000086101204861084605F06DF80020AF490B
:1012F000086033204860402088600020C8604FF4B8
:1013000080600861084605F032F83320FFF775FF6A
:1013100004460CB12046BEE70DE04FF4001005F086
:10132000B9F840B19E48803000684DF82600761C20
:10133000022E00D307E09A483430006840F22A6158
:1013400008400028E9D000BF082005F0A3F820B12C
:10135000082005F0AAF804209DE7022005F09AF87D
:1013600020B1022005F0A1F8022094E7202005F02A
:1013700091F820B1202005F098F806208BE74FF473
:10138000007005F087F828B14FF4007005F08DF873
:10139000072080E740F2FF5005F087F8009800062C
:1013A000009901F47F4140EA0120009901F47F0196
:1013B00040EA1120009940EA116068600198000637
:1013C000019901F47F4140EA0120019901F47F0174
:1013D00040EA1120019940EA1160286020465AE74E
:1013E0007CB50546002400200090019000260DB138
:1013F000022600E000266A481430006800F0007001
:1014000008B10E207CBD6A49098888B26946FFF799
:1014100024FF04460CB12046F4E7019800F4802034
:1014200060B3634800880004604908603720486062
:10143000402088600020C8604FF480600861084642
:1014400004F095FF3720FFF7D8FE04460CB1204684
:10145000D8E7564806600620544948604020886016
:101460000020C8604FF480600861084604F07FFFE8
:101470000620FFF7C2FE04462046C3E72520C1E749
:1014800070B5044600254C480078032802D1272572
:10149000284670BD4848007838B147480078012890
:1014A00003D045480078022819D1B4F5805F02D1F5
:1014B00027252846EDE7E0B2FFF792FF054675B90C
:1014C0003748001D006820F4C0503549091D0860E8
:1014D00008460068204308600846006808602846FF
:1014E000D7E710B504463148046007202F4948600B
:1014F000402088600020C8604FF480600861084682
:1015000004F035FF0720FFF778FE10BDF0B5014667
:1015100000200022284B1B7881F85630244B1B8872
:10152000A1F85430254B1B681A0E93090B70C2F3B7
:1015300083034B7002F003038B70204B1B68C3F3D3
:101540000742CA701D4B1B88C3F307220A711B4B4D
:101550001A784A715B681A0E1301CB80174B5B68CF
:10156000C3F30742CB8843EA1213CB8002F00F0388
:101570000B72124B9B88C3F30722D3094B72C2F341
:1015800080138B72C2F34013CB72C2F300130B7340
:1015900000234B73084B1B78C3B1074B1B780FE03C
:1015A000002C0140FF07C00034000020300600205E
:1015B00030000020440600202C0000205C060020A3
:1015C000012B03D0FE4B1B78032B4FD193071B0D30
:1015D0000B61FC4B1A790B6943EA82030B61F94BEF
:1015E0009B681A0E0B6943EA92130B61C2F3C203A4
:1015F0000B7502F007034B75F24B9B68C3F3074270
:1016000053098B75C2F38203CB7593075B0F0B767F
:10161000EC4B1B89C3F307220B7E43EAD2130B76F4
:101620000B695B1C0024C1E912340B7E9B1C012456
:1016300004FA03F3DC17D1E91256A5FB037C06FB81
:1016400003C305FB0433C1E912730C7A0123A340E1
:101650000B650024D1E912650B6DA6FB037C05FB2D
:1016600003C306FB0433C1E912732EE0D44B1B788D
:10167000022B2AD1D34B1A7993069B0A0B61D14BCB
:101680009B681A0E0B6943EA02230B61CD4B9B68E2
:10169000C3F307420B6913430B61CA4B1B89C3F3A6
:1016A00007220B695B1C4FF40074A3FB04464FF444
:1016B00080630025A4FB037C06FB03C304FB053306
:1016C000C1E912734FF400730B65C2F3801301F884
:1016D000193F93065B0E4B70BA4B1A7A4B7843EA6C
:1016E000D2134B7002F07F038B70B64BDB681A0E7F
:1016F000D309CB70C2F341130B71C2F382034B7158
:1017000093071B0F8B71AF4BDB68C3F307428B79D9
:1017100043EA92138B71C2F34013CB7100230B7217
:1017200002F001034B72A74B9B89C3F30722D30935
:101730008B72C2F38013CB72C2F340130B73C2F3EC
:1017400000134B73C2F381038B7302F00303CB735B
:101750009C4B1A7B53080B7401234B749A4B1B68E8
:101760001A0ECA741939984B1B68C3F30742140246
:10177000CC85954B1B88C3F30722CB8D1343CB85B8
:10178000914B1A7814060C635B681A0E0B6B43EAD4
:1017900002440C638C4B5B68C3F307420B6B43EA58
:1017A00002240C63884B9B88C3F307220B6B134303
:1017B0000B63854B1A7934235A54834B9B681A0E5A
:1017C00035235A54804B9B68C3F3074214068C633D
:1017D0007D4B1B89C3F307228B6B43EA02448C6366
:1017E000794B1A7A8B6B43EA02248C63764BDB6865
:1017F0001A0E8B6B13438B63734BDB68C3F3074287
:101800003C235B5C43EA12143C235C5413071C0D1D
:10181000CC876D4B9B89C3F30722CB8F1343CB87B8
:10182000694B1A7B540840235C54012441235C54C7
:10183000F0BD70B500264FF4803505E063480468BC
:1018400004F0450000B103E0281EA5F10105F5D123
:1018500000BF15B104F0040028B10326042004F0F1
:1018600024FE304670BD012004F014FE18B101269C
:10187000012004F01AFE40F2FF5004F016FE30463C
:10188000F0E72DE9F04105460E464FF0000805E06F
:101890004E48076807F0450000B100E0F8E700BFD8
:1018A000042004F0F7FD28B1042004F0FEFD03201D
:1018B000BDE8F081012004F0EDFD20B1012004F02D
:1018C000F4FD0120F4E7414824380068A84201D023
:1018D0001020EDE740F2FF5004F0E7FD3B482038D0
:1018E000046804F4604018B9200C30804046DFE7FB
:1018F00004F4005008B11320DAE704F4804008B182
:101900001020D5E704F4004008B10F20D0E740468E
:10191000CEE738B500240120009004F022FD10B974
:101920002524204638BD26480078042825D00020EC
:101930002749086002204860C02088600020C860F5
:101940004FF480600861084604F011FDFFF771FF55
:1019500004460CB12046E5E71C48203800681A49C7
:1019600008601A481C380068486018481838006831
:101970008860164814380068C8601148007858B16B
:101980000F480078012807D00D480078062803D0BA
:101990000B480078022821D100200D49086003205F
:1019A0004860402088600020C8604FF48060086173
:1019B000084604F0DCFC69460320FFF762FF09E0FB
:1019C0002C0000205C0600206C060020342C014016
:1019D0003006002004460CB12046A3E7FE480078FC
:1019E000032816D1BDF800000004FC49086003205C
:1019F0004860402088600020C8604FF48060086123
:101A0000084604F0B4FCFFF714FF04460CB120466E
:101A100088E7F148007804282AD0BDF80000F04992
:101A20000860BDF800000004EC4908600920486027
:101A3000C02088600020C8604FF4806008610846BC
:101A400004F095FCFFF7F5FE04460CB1204669E76B
:101A5000E4480068E4490860E248001D0068486006
:101A6000E048083000688860DE480C300068C860D4
:101A7000002057E710B506E0DA482030046804F08B
:101A8000450000B100E0F7E700BF042004F002FDCC
:101A900020B1042004F009FD032010BD40F2FF50E6
:101AA00004F003FD0020F8E770B500264FF4803500
:101AB00006E0CC482030046804F0450000B103E0A3
:101AC000281EA5F10105F4D100BF15B104F00400F2
:101AD00028B10326042004F0E8FC304670BD04F071
:101AE000400018B10026402004F0DFFC3046F5E746
:101AF00070B500254FF4803404E0802004F0CAFC67
:101B000000B103E0201EA4F10104F6D100BF0CB91E
:101B1000032070BD40F2FF5004F0C7FC2846F8E7F0
:101B20002DE9F0470027002400260025A046A14605
:101B30007620AE4908750020086048608860C8605B
:101B40000861084604F0E9FB032004F006FCA54800
:101B50001038006840F48070A2491039086000BF56
:101B600012E000209D49086048608860C8604FF41A
:101B700080600861084604F0FAFBFFF7B9FF0446ED
:101B800004B903E0781CC7B24A2FEADB00BF14B1E6
:101B90002046BDE8F0874FF4D570904908600820D2
:101BA0004860402088600020C8604FF48060086171
:101BB000084604F0DCFBFFF777FF044624B9012058
:101BC000854908704FF0804900208449086037201B
:101BD0004860402088600020C8604FF48060086141
:101BE000084604F0C4FB3720FFF707FB0446002C2F
:101BF0004BD134E00020794908603720486040200C
:101C000088600020C8604FF480600861084604F0D6
:101C1000AEFB3720FFF7F1FA04460CB12046B8E7D7
:101C2000734849EA00006D49086029204860402057
:101C300088600020C8604FF480600861084604F0A6
:101C400096FBFFF717FF04460CB12046A1E7654855
:101C50000668012080EAD67080F001086D1CB8F19A
:101C6000000F03D14FF6FF708542C3D34FF6FF70CC
:101C7000854202D31B2420468BE706F08040061ED7
:101C800032D00220544908702EE01CE059485349D4
:101C9000086001204860402088600020C8604FF440
:101CA00080600861084604F062FBFFF7E3FE04462B
:101CB0000CB120466DE74B480668012080EAD670DB
:101CC00080F001086D1CB8F1000F03D14FF6FF70D2
:101CD0008542DBD34FF6FF70854202D31B2420469A
:101CE00057E703203C490870204652E73EB50024E0
:101CF00000250121404801F06FFF0121C80201F0D9
:101D0000C5FF0121C80202F016F84FF4F850019007
:101D100002208DF808008DF8090000208DF80A00D7
:101D200001208DF80B0001A9344801F0B7FC042014
:101D3000019001A9324801F0B1FC0C2208212F4882
:101D400001F037FD0C2209212C4801F032FD0C2254
:101D50000A212A4801F02DFD0C220B21274801F011
:101D600028FD0C221146254801F023FD0C220221FA
:101D7000234801F01EFD00214FF4006001F0DBFF5D
:101D8000FFF710FA31208DF8000000208DF80100D7
:101D90008DF8020001208DF80300684601F08DFBEC
:101DA000FFF7BEFE044614B9FFF7B3FD04461CB9A5
:101DB0001448FFF7ABFB044634B91249B1F854108C
:101DC0000804FFF78EFB044624B94FF40060FFF7C8
:101DD00057FB0446E4B117E02C0000203006002039
:101DE00030000020142C01405C0600201806002062
:101DF000000010800080FF800C00400000080240BE
:101E0000000C024080060020FE480078032812D112
:101E1000FD4890F8560020B1FB4890F85600012884
:101E200001D1022500E000252846FFF7DDF900205A
:101E3000FFF7D0F9044620463EBD10B5002004F05F
:101E40008CFA002010BD70B590B004460E461546C1
:101E500000BFEE4804F0ABF90028FAD1EB4804F0DB
:101E60007DF84FF000600190E948029003940495DA
:101E70000020059006904FF4806007908000089045
:101E80008000099000200A904FF440300B9004200D
:101E90000C9003200D904FF400000E9080100F90D6
:101EA00001A9DA4804F0FCF82021D84804F048F9E8
:101EB0000121D64804F02EF910B070BD0146002073
:101EC00002E04910421CD0B20129FAD170472DE935
:101ED000F84F8146174698460A9C4FF0000AD346B1
:101EE0004D464FF0FF36B9F1000F02D12620BDE874
:101EF000F88F0020C64954390860C248007802288B
:101F000005D10402780A40EAC8574FEA6828002041
:101F1000C04988604860401E086001204861002078
:101F2000C8600861084604F04EFAB9486C38006889
:101F300000F0007008B10E20D9E7002C21DDB4F5C7
:101F4000006F1EDC601E2040D8B92046FFF7B6FFA8
:101F50000090B14804601020AF494860402088607C
:101F60000020C8604FF480600861084604F0FFF963
:101F70001020FFF742F98246BAF1000F03D0504615
:101F8000B5E72620B3E700980001A249886008461B
:101F900044604FF0FF300860012048610220C860B3
:101FA00000200861084604F00EFA9B4807601120E3
:101FB00099494860402088600020C8604FF48060E4
:101FC0000861084604F0D3F91120FFF716F982469C
:101FD000BAF1000F01D0504689E7904800780028F8
:101FE0005AD1FEF798F917E04FF4004004F052FA86
:101FF00070B14FF0000B05E08548006845F82B00F4
:102000000BF1010BBBF1080FF6D32035844E03E032
:102010000EB904206BE7761E7D484C38006840F20C
:102020002A6108400028DFD0082004F033FA20B1EC
:10203000082004F03AFA042059E7022004F02AFAB2
:1020400020B1022004F031FA022050E7202004F0F1
:1020500021FA20B1202004F028FA062047E74FF4A7
:10206000007004F017FA28B14FF4007004F01DFA64
:1020700007203CE703E06648006828602D1D4FF408
:10208000001004F007FA0028F5D1FEF746F940F2F7
:10209000FF5004F00AFA39E060480078012835D191
:1020A000002060490870604908706049087058480D
:1020B0004438006840F22A310843554944390860E1
:1020C00053485438006840F00800514954390860BA
:1020D000002221464846FFF7B6FE00E0761E4B4838
:1020E0005838006800F0006038B95048007820B9CE
:1020F0004C48007808B9002EF0D10EB90420F6E65D
:102100004848007810B1474890F800A05046EEE6E5
:102110002DE9FF5F17469846DDE90E464FF00009AE
:10212000CA464FF0FF354249009808600020384900
:102130005439086033480078022805D10402780A2F
:1021400040EAC8574FEA6828002032498860486052
:10215000401E0860012048610020C86008610846F0
:1021600004F031F92A486C38006800F0007018B1AA
:102170000E2004B0BDE8F09F002C21DDB4F5006F07
:102180001EDC601E2040D8B92046FFF797FE83462C
:1021900021480460102020494860402088600020C9
:1021A000C8604FF480600861084604F0E0F8102031
:1021B000FFF723F88146B9F1000F03D04846D8E76E
:1021C0002620D6E7012E6ED906FB04F0B0F1007F81
:1021D00001D32620CDE74FEA0B100E49886006FB9D
:1021E00004F048604FF0FF30086001204861022091
:1021F000C86000200861084604F0E5F8064807605A
:10220000122017E02C0000208006002058640240B5
:10221000802C0140440600203006002034000020BD
:10222000FFFF7F003600002035000020370000202F
:1022300038000020F9494860402088600020C860CC
:102240004FF480600861084604F091F81220FEF710
:10225000D4FF8146B9F1000F01D0484689E7F04824
:10226000007800287ED1FEF756F81EE04FF40040BB
:1022700004F010F9A0B14FF0000A07E0E948006847
:10228000E949096841F82A000AF1010ABAF1080F80
:10229000F4D3E54800682030E3490860E34D04E0EA
:1022A00015B9042065E7AEE06D1EDE484C380068C5
:1022B00040F22A3108400028D8D0082004F0EAF87B
:1022C00020B1082004F0F1F8042052E7022004F0C5
:1022D000E1F820B1022004F0E8F8022049E72020CC
:1022E00004F0D8F820B1202004F0DFF8062040E701
:1022F0004FF4007004F0CEF828B14FF4007004F0F1
:10230000D4F8072035E709E0C6480068C6490968DF
:102310000860C5480068001DC34908604FF40010FC
:1023200004F0B8F80028EFD14FF4807004F0B2F850
:1023300020B3BF48007838B1BD480078012803D0E9
:10234000BB480078022819D10020B44908600C204D
:102350004860402088600020C8604FF480600861B9
:10236000084600E011E004F002F80C20FEF745FFFB
:102370008146B9F1000F01D04846FAE6FDF7CDFFDE
:1023800040F2FF5004F091F83DE0A54800780128A4
:1023900039D10020A74908700120A7490870002002
:1023A000A64908709F484438006840F22A31084323
:1023B0009C49443908609B485438006840F0080044
:1023C00098495439086006FB04F100220098FFF791
:1023D0003AFD00E06D1E9A48006800F0006008B900
:1023E000002DF7D10DB90420C3E600BF9348007853
:1023F00018B9904800780028F8D08E48007810B1BD
:102400008C4890F800904846B3E61CB5044600207E
:10241000019000908B4800880004804908600D20DE
:102420004860402088600020C8604FF480600861E8
:10243000084603F09CFF7B484C380068009003E09E
:1024400078484C3800680090009800F0450000285B
:10245000F6D0012004F01EF820B1012004F025F888
:1024600001201CBD042004F015F820B1042004F064
:102470001CF80320F5E76B48703800680D2801D080
:102480001020EEE740F2FF5004F00FF865486C387A
:10249000006801900198C0F3432020700020E0E71D
:1024A0002DE9FF5F86B017469846149D0026002050
:1024B0000590049000248146039082460290019585
:1024C000DDF818B0DDF818B0BBF1000F03D12620FD
:1024D0000AB0BDE8F09F00205249543908605A49BB
:1024E00088604860401E0860012048610020C86084
:1024F0000861084603F067FF4A486C38006800F03E
:10250000007008B10E20E3E749480078022805D1A1
:102510000502780A40EAC8574FEA6828002D1FDDF7
:10252000B5F5006F1CDC681E2840C8B92846FFF7C7
:10253000C5FC0590394805601020384948604020A6
:1025400088600020C8604FF480600861084603F08E
:102550000EFF1020FEF751FE06461EB13046B7E7CB
:102560002620B5E73748008800042C4908600D2074
:102570004860402088600020C8604FF48060086197
:10258000084603F0F4FE0D20FEF737FE06460EB1B6
:1025900030469DE723486C38006803904FF0FF34C5
:1025A0001CE0641E2748008800041C4908600D20B8
:1025B0004860402088600020C8604FF48060086157
:1025C000084603F0D4FE0D20FEF717FE06460EB1B6
:1025D00030467DE713486C3800680390039800F498
:1025E000807008B9002CDCD10CB9292070E70B48A9
:1025F0000760182009494860402088600020C860B2
:102600004FF480600861084603F0B1FE1820FEF721
:10261000F4FD0646D6B130465AE7000030060020E9
:1026200034000020802C014038000020FFFF7F0094
:102630002C0000203600002035000020370000204C
:102640000064024030000020440600200020F849C9
:10265000087005980001F7498860084645604FF00A
:10266000FF300860012048610020C860086108460A
:1026700003F0A9FE4FF0FF34EF48007800287CD12A
:10268000FDF749FE43E04FF4804003F003FFC8B379
:102690000198A0EB0900202821D20198A0EB0900A5
:1026A00000F0030020B90198A0EB0900800804E0C5
:1026B0000198A0EB09008008401C02904FF0000A2E
:1026C00009E0DE49DBF8000008600AF1010A0BF1BD
:1026D000040B09F1040902988245F2D30FE04FF090
:1026E000000A05E05BF82A00D44908600AF1010AF3
:1026F000BAF1080FF6D30BF1200B09F120096FF0A6
:10270000404404E0FFE70CB90420E1E6641ECB4836
:102710004C38006840F21A6108400028B3D0082005
:1027200003F0B8FE20B1082003F0BFFE0420CFE67E
:10273000022003F0AFFE20B1022003F0B6FE02201B
:10274000C6E6102003F0A6FE20B1102003F0ADFE77
:102750000520BDE64FF4007003F09CFE30B14FF44D
:10276000007003F0A2FE0720B2E606E0FDF7D5FDFB
:1027700040F2FF5003F099FE43E0AF480078012893
:102780003FD10020AE490870A9490870AD490870D2
:10279000AA484438006840F21A310843A74944392E
:1027A0000860402229460698FFF74DFBA34854389D
:1027B000006840F00800A1495439086000E0641E38
:1027C000A148006800F0006008B9002CF7D11CB9DE
:1027D000FFF78CFA04207BE64FF0FF3400E0641E24
:1027E0009848007820B99648007808B9002CF6D1AE
:1027F0000CB904206CE69248007810B1904800783B
:1028000066E640F2FF5003F050FE04A8FFF7FDFD1E
:10281000064603E004A8FFF7F8FD06463EB99DF81A
:1028200010000728F6D09DF810000628F2D0304698
:102830004EE62DE9FF5F84B0DDE912470026002057
:1028400003900290002580468146019007FB04FB1F
:10285000DDF810A0DDF810A0BAF1000F03D126209A
:1028600008B0BDE8F09F00207449543908607149F0
:1028700088604860401E0860012048610020C860F0
:102880000861084603F09FFD6C486C38006800F052
:10289000007008B10E20E3E76C480078022808D1E8
:1028A0000402DDE90601400A40EAC1504912CDE9BF
:1028B0000601002C1FDDB4F5006F1CDC601E2040FB
:1028C000C8B92046FFF7FAFA039061480460102067
:1028D0005F494860402088600020C8604FF48060F5
:1028E0000861084603F043FD1020FEF786FC06460B
:1028F0001EB13046B4E72620B2E7012F6FD907FB9F
:1029000004F0B0F1007F01D32620A9E74F480078FA
:1029100038B14E480078012803D04C48007802288E
:102920002DD14C4800880004494908603720486090
:10293000402088600020C8604FF48060086108462D
:1029400003F015FD3720FEF758FC06460EB1304661
:1029500086E73F48076017203D494860402088606F
:102960000020C8604FF480600861084603F0FFFC57
:102970001720FEF742FC06460EB1304670E7344998
:102980000698086019204860402088600020C860D0
:102990004FF480600861084603F0E9FC1920FEF757
:1029A0002CFC06460EB130465AE703980001214937
:1029B000886007FB04F048604FF0FF30086001209A
:1029C00048610020C8600861084603F0FCFC1A4812
:1029D0000078002872D1451EFDF79DFC54E0F8E018
:1029E0004FF4804003F056FDB0B3ABEB0800202855
:1029F00033D2ABEB080000F0030018B9ABEB0800D2
:102A0000800803E0ABEB08008008401C01904FF009
:102A1000000909E00949DAF80000086009F1010934
:102A20000AF1040A08F1040801988145F2D324E070
:102A3000350000204406002034000020802C014096
:102A40003600002037000020006402402C000020E7
:102A5000300600203000002012E04FF0000905E0B1
:102A60005AF82900F749086009F10109B9F1080F7E
:102A7000F6D30AF1200A08F120086FF0404503E080
:102A80000DB90420ECE66D1EEE484C38006840F2AB
:102A90001A3108400028A3D0082003F0FBFC20B125
:102AA000082003F002FD0420DAE6022003F0F2FC25
:102AB00028B1022003F0F9FC0220D1E640E010200A
:102AC00003F0E8FC20B1102003F0EFFC0520C7E67E
:102AD0004FF4007003F0DEFC28B14FF4007003F0F7
:102AE000E4FC0720BCE64FF4807003F0D3FC00B395
:102AF000D548007838B1D4480078012803D0D248AE
:102B00000078022815D10020D04908600C204860C8
:102B1000402088600020C8604FF48060086108464B
:102B200003F025FC0C20FEF768FB06460EB130468C
:102B300096E6FDF7F2FB40F2FF5003F0B6FC48E0EA
:102B4000C3480078012844D10020C2490870012000
:102B5000C14908700020C1490870BA48443800686B
:102B600040F21A310843B7494439086007FB04F1C1
:102B700040220498FFF767F9B2485438006840F0E3
:102B80000800B049543908604FF0FF3500E06D1E71
:102B9000B348006800F0006008B9002DF7D11DB9F6
:102BA000FFF7A4F804205BE64FF0FF3500E06D1E50
:102BB000AA48007820B9A748007808B9002DF6D1B6
:102BC0000DB904204CE6A348007810B1A148007864
:102BD00046E640F2FF5003F068FC02A8FFF715FC40
:102BE000064603E002A8FFF710FC06463EB99DF832
:102BF00008000728F6D09DF808000628F2D03046D5
:102C00002EE610B54FF4807003F044FC88B3924870
:102C10000078012814D100208C4908600C204860FD
:102C2000402088600020C8604FF48060086108463A
:102C300003F09DFB0C20FEF7E0FA8649087002E0E5
:102C40000020844908707F484838006840F480704C
:102C50007C4948390860081D00684CF23A318843C5
:102C600078494439086001207C4908707948007827
:102C700010BDFFE7022003F00DFC78B1022003F045
:102C800014FC7048443800684CF23A3188436D496E
:102C90004439086002206F490870E9E7082003F012
:102CA000F9FB78B1082003F000FC6648443800685E
:102CB0004CF23A318843634944390860042065493D
:102CC0000870D5E7202003F0E5FB78B1202003F061
:102CD000ECFB5C48443800684CF23A31884359496F
:102CE0004439086006205B490870C1E7102003F0F2
:102CF000D1FB78B1102003F0D8FB5248443800686B
:102D00004CF23A3188434F49443908600520514913
:102D10000870ADE74FF4007003F0BCFB80B14FF4D6
:102D2000007003F0C2FB4748443800684CF23A3167
:102D3000884344494439086007204649087097E7AA
:102D4000002095E710B5FFF75CFF10BD70B5044695
:102D5000002514B92625284670BD42480088000485
:102D60003A4908600D204860402088600020C86013
:102D70004FF480600861084603F0F9FA0D20FEF771
:102D80003CFA05460DB12846E6E72E486C38006847
:102D900020602846E0E708B5002000906846FFF76D
:102DA000D5FF08B1FF2008BD0098C0F34320FAE723
:102DB0002DE9FE4F83460C469146002002900026E6
:102DC00025462C46700240EAD5566D020BF00300F2
:102DD000F0B14FF0000A18E04FF4007000904FEA95
:102DE0004A20471946EBE0733A461F48FFF76FF851
:102DF00002904FF400721C49584605F0B2F90BF5E9
:102E0000007B0AF1010000F0FF0ACA45E4DB16E08E
:102E1000B9F1010F09D14FF400702A4633460090F2
:102E20005846FFF754F8029009E04FF400702A4624
:102E30003346CDE900095846FFF76AF90290029837
:102E4000BDE8FE8F802C01402C00002030060020C1
:102E5000340000203600002035000020370000201C
:102E60000064024030000020D80600202DE9FE4F0B
:102E700081460C46924600200290002625462C46AC
:102E8000700240EAD5566D0209F00300F0B14FF030
:102E9000000B18E04FF400724946194805F061F93B
:102EA0004FF4007000904FEA4B20471946EBE07357
:102EB0003A461348FFF7F4FA029009F500790BF14E
:102EC000010000F0FF0BD345E4DB16E0BAF1010F7F
:102ED00009D14FF400702A46334600904846FFF768
:102EE000DFFA029009E04FF400702A463346CDE93C
:102EF000000A4846FFF79DFC02900298BDE8FE8F4D
:102F0000D80600201CB50121112000F065FE182014
:102F1000009000208DF8040003208DF805000120AA
:102F20008DF807006946354800F0B8FB0120009095
:102F300002208DF807006946314800F0AFFB1CBD48
:102F400010B5044614B101202E4908702D480078B0
:102F5000002837D01021294800F002FC78B1082160
:102F6000264800F0FDFB50B10421244800F0F8FB96
:102F700028B10121224800F0F3FB012822D10A20C8
:102F800000F0A8F900201F49087010211B4800F02C
:102F9000E7FB08B9012010BD0821184800F0E0FB4C
:102FA00008B90220F7E70421144800F0D9FB08B95A
:102FB0000320F0E70121124800F0D2FB01281BD1C9
:102FC0000420E8E710210D4800F0CAFB012813D1C6
:102FD00008210A4800F0C4FB01280DD1042107484C
:102FE00000F0BEFB012807D10121054800F0B8FB25
:102FF00010B90120034908700020CCE700100240FE
:10300000000002403C00002010B540F225515A4813
:1030100001F016F900B3584801F050F8C4B257480F
:10302000008800F40040B8B954480088B0F5C87F63
:1030300013DA0021524802F0F7F85048008818B916
:1030400001214F4802F030F94C4801880088401CAB
:103050004A4A10804B48445405E04848008840F4F0
:1030600000404649088010BD10B588B004460121D3
:10307000022000F0B1FD0121880400F0F6FD3E4879
:1030800000F0FEFE07220B213F4800F092FB0722D2
:103090000A213D4800F08DFB4FF44060059002206E
:1030A0008DF818008DF8190000208DF81A00012005
:1030B0008DF81B0005A9344800F0F0FA01940020B7
:1030C000ADF80800ADF80A00ADF80C00ADF810003E
:1030D0000C20ADF80E0001A9274800F038FF0121AF
:1030E000254800F0BCFF012240F22551224801F0A2
:1030F0006CF827208DF81C0002208DF81D0003209D
:103100008DF81E0001208DF81F0007A800F0D5F9EA
:1031100042F2CF0140F2E73000F04FF800201749AB
:1031200008800021164802F0BFF808B010BD0FB4A7
:1031300038B505A800901548009A049904F012FECD
:1031400000200090114804F0EDFF85B200240DE04E
:1031500000BF4021084801F05DF80028F9D00B4875
:10316000015D054800F0A6FF601C84B2AC42EFDBB5
:1031700038BC5DF814FB0000004800403E00002011
:1031800000140040680A002000040240D808002013
:1031900010B501211C4802F0B6FC68B11B4800883C
:1031A00040F40040194908800121174802F0BCFC96
:1031B0000021154802F078F810BD7FB505460C4691
:1031C0000121202000F051FD0195ADF800400020C4
:1031D000ADF80800ADF8020069460B4801F0DBFFCE
:1031E00001221146084802F077FC37208DF80C00C8
:1031F00000208DF80D0001208DF80E008DF80F00D5
:1032000003A800F05AF97FBD001400403E000020E2
:1032100010B504466FF0040000F09CF9E11704EBD0
:103220005171C1F3C701394A11701046007800EBA3
:103230004001C1EBC0104FF6FF7101EAC0003449F4
:10324000088010BD0146314A12784A434FF0E0230E
:103250005A6100229A611A46126942F001021A610B
:1032600000BF4FF0E022106900F001021AB100F433
:103270008032002AF5D04FF0E022126922F00102DC
:103280004FF0E0231A6100229A6170470146204AFC
:1032900012884A434FF0E0235A6100229A611A468D
:1032A000126942F001021A6100BF4FF0E02210697A
:1032B00000F001021AB100F48032002AF5D04FF07C
:1032C000E022126922F001024FF0E0231A6100228D
:1032D0009A61704770B504464FF4077094FBF0F0A4
:1032E000C6B24FF4077094FBF0F100FB114085B2B9
:1032F00005E04FF40770FFF7C9FF701EC6B2002E3D
:10330000F7D115B12846FFF7C1FF70BD400000207E
:103310004200002000BF704700BF504A128802F0F0
:103320004002002AF9D0C2B24C4B9A80704710B5C7
:1033300088B004460121084600F04EFC012110200F
:1033400000F0A4FC07220921454800F032FA0722C8
:103350000A21434800F02DFA4FF4C0600690022085
:103360008DF81C008DF81D0000208DF81E00012036
:103370008DF81F0006A93A4800F090F90294002049
:10338000ADF80C00ADF80E00ADF81000ADF814006B
:103390000C20ADF8120002A9304800F0D8FD012140
:1033A0002E4800F05CFE012240F225512B4800F02F
:1033B0000CFF25208DF8040003208DF805008DF802
:1033C000060001208DF8070001A800F076F808B08B
:1033D00010BD10B540F22551204800F031FF002803
:1033E0003AD01E4800F06AFE1E491F4A12788854DF
:1033F0001D480078401C1C490870084600780128C8
:1034000004D002280BD0062825D111E0134800F083
:1034100055FEBB2802D00020134908701BE00F485E
:1034200000F04CFEAA2802D000200F49087012E0DC
:1034300005210C48FDF75CFC0A494979884203D014
:1034400000200949087005E00020074908700120A4
:103450000649087000BF00BF10BD00000010014009
:1034600000000240440000204B0000204A000020E1
:103470000948804709480047FEE7FEE7FEE7FEE708
:10348000FEE7FEE7FEE7FEE7FEE7FEE70448054944
:10349000054A064B7047000019060008890100081C
:1034A00020B6012020BC012020B8012020B8012036
:1034B00032490143324A1160704770B50021002340
:1034C0000F22C4781CB32E4C246804F4E064C4F5C5
:1034D000E064C4F30721C1F10404E3B20A41447873
:1034E0009C40E1B28478144021430C07210E254C06
:1034F00005786155047804F01F050124AC40057877
:103500006D11AD0005F1E025C5F8004109E0047832
:1035100004F01F050124AC401B4D0678761145F8D8
:10352000264070BD194A0A400243154B1B1F1A6002
:10353000704739B1124A121D12680243104B1B1D0D
:103540001A6006E00E4A121D126882430C4B1B1DC6
:103550001A607047042808D14FF0E021096941F052
:1035600004014FF0E022116107E04FF0E02109690A
:1035700021F004014FF0E022116170470000FA05CC
:103580000CED00E000E400E080E100E080FFFF1FC0
:1035900010B504469848844208D10121084600F03D
:1035A00086FB0021012000F082FB76E093488442F4
:1035B00008D10121022000F07AFB0021022000F056
:1035C00076FB6AE08E48844208D10121042000F095
:1035D0006EFB0021042000F06AFB5EE08948844213
:1035E00008D10121082000F062FB0021082000F032
:1035F0005EFB52E08448844208D10121102000F093
:1036000056FB0021102000F052FB46E07F48844228
:1036100008D10121202000F04AFB0021202000F0E9
:1036200046FB3AE07A48844208D10121402000F06C
:103630003EFB0021402000F03AFB2EE0754884421A
:1036400008D10121802000F032FB0021802000F011
:103650002EFB22E07048844208D10121801500F041
:1036600026FB0021A01500F022FB16E06B488442E7
:1036700008D10121401500F01AFB0021601500F06F
:1036800016FB0AE06648844207D10121001500F0CC
:103690000EFB0021201500F00AFB10BDF0B50A4614
:1036A00000210023002400BF3DE0012505FA01F3BD
:1036B000156805EA03049C4234D105684F000326CF
:1036C000BE40B543056015794E00B54006683543E8
:1036D00005601579012D02D01579022D16D1856866
:1036E0004F000326BE40B543856055794E00B54076
:1036F000866835438560456801268E40B543456040
:10370000456896798E40B6B235434560C5684F002E
:103710000326BE40B543C560D5794E00B540C668A6
:103720003543C560491C1029BFD3F0BD4FF6FF716A
:1037300001600021017141718171C171704708B54B
:103740004FF480320092009A0A430092009AC261BC
:10375000C161009AC261C2690092C269009208BD4B
:103760000246002013690B400BB1012000E000204D
:1037700070470146086980B27047024600205369CD
:103780000B400BB1012000E0002070470146486962
:1037900080B2704701837047418370470AB101834B
:1037A00000E0418370474161704742694A4042618D
:1037B0007047F0B5002300244D07ED0E02FA05F323
:1037C000CE1000F1200555F826504E07F70E0F26B3
:1037D000BE40B543CF1000F1200646F82750CE106A
:1037E00000F1200555F8265045EA0304CE1000F1FB
:1037F000200545F82640F0BD0000024000040240CC
:1038000000080240000C0240001002400014024078
:1038100000180240001C0240002002400024024028
:1038200000280240F948006840F00100F7490860AC
:103830000020F64908310860F4480068F44908405F
:10384000F2490860F348091D0860F348EF498431E4
:103850000860F0481038091D0860EC48006820F442
:103860008020EA4908600020E8490C310860E749F7
:103870008C31086070470021E44A921C1170114697
:103880000870704710B501460022002300204A113D
:10389000012A02D1DD4C236808E0022A03D1DB4C67
:1038A0007034236802E0D94C7434236801F01F029D
:1038B000012494401C400CB1012000E0002010BD08
:1038C00038B5002000900024002500BF3120FFF70C
:1038D000D9FF05460098401C00900098B0F5A04F15
:1038E00001D0002DF2D03120FFF7CCFF08B1012428
:1038F00000E00024204638BD01460020C34A10687D
:1039000020F0F80040EAC10010607047C349086029
:1039100070470021BD4A703211701170012802D029
:1039200004280AD104E00121B84A7032117005E080
:103930000521B64A7032117000E000BF00BF704729
:10394000B7490860704770B5049C41EA82150126AA
:10395000C6EB530645EA0645054345EA0465AB4E0A
:10396000361D356070BDAD4908667047820142EA78
:103970000172A64B84331A607047A8498866704765
:1039800010B5830143EA016343EA02739F4C883414
:10399000236010BDA14908677047A049C8647047FB
:1039A00002460020994B0833186820F0EC6042EA88
:1039B00001031843954B08331860704702460020F6
:1039C000924B0833186820F0784042EA010318430C
:1039D0008E4B083318607047014600208B4A08322E
:1039E000106820F0030008431060704787480830D3
:1039F000006800F00C00704701460020834A08323E
:103A0000106820F0F0000843106070470146002065
:103A10007E4A0832106820F4E05008431060704776
:103A200001460020794A0832106820F4604040EADC
:103A3000C10010607047F0B500210022002402256B
:103A400000260223714F08373F6807F00C0121B1AF
:103A5000042905D0082937D105E0724F076036E008
:103A6000714F076033E0694F3F1D3F68C7F38056D1
:103A7000664F3F1D3F6807F03F036EB16A4FB7FBCB
:103A8000F3F7DFF888C10CF1040CDCF800C0CCF3CC
:103A9000881C07FB0CF40CE0624FB7FBF3F7DFF870
:103AA0006CC10CF1040CDCF800C0CCF3881C07FBE3
:103AB0000CF4564F3F1D3F68C7F301477F1C7D0044
:103AC000B4FBF5F7076002E0564F076000BF00BF88
:103AD0004E4F08373F6807F0F0010909534F7A5CF1
:103AE0000768D7404760494F08373F6807F4E051FF
:103AF000890A4E4F7A5C4768D7408760434F083742
:103B00003F6807F46041490B484F7A5C4768D740EB
:103B1000C760F0BD002100F44072B2F5407F0AD1C9
:103B20003A4A0832116821F4F811414A024011431F
:103B3000364A08321160354A70321268C0F30B03FE
:103B40001A43324B70331A60704735494439086064
:103B500070473349403908607047364908607047FC
:103B600001460020294A8C32106820F01F004A1EAE
:103B70001043264A8C321060704701460020234AC9
:103B80008C32106820F4F8504A1E40EA02201F4A86
:103B90008C3210607047014600201C4A8C3210683D
:103BA00020F4401008431060704701460020174A77
:103BB0008C32106820F440000843106070470146C2
:103BC0000020124A8C32106820F440300843106004
:103BD000704719490860704739B10C4A3032126891
:103BE00002430A4B30331A6006E0084A303212684A
:103BF0008243064B30331A607047F9B1034A3432BE
:103C000012680243014B34331A601CE00038024052
:103C1000FFFFF6EA10300024003000200000474289
:103C2000800E47420024F40000127A005200002067
:103C3000FFFCFF0F5C014742E01147428F4A1268C8
:103C400082438E4B1A60704739B18C4A121D12683C
:103C500002438A4B1B1D1A6006E0884A121D126837
:103C60008243864B1B1D1A60704739B1834A0C3260
:103C700012680243814B0C331A6006E07F4A0C3213
:103C8000126882437D4B0C331A60704739B17B4A0E
:103C9000103212680243794B10331A6006E0774AFB
:103CA000103212688243754B10331A60704739B175
:103CB000724A243A12680243704B243B1A6006E0B1
:103CC0006E4A243A126882436C4B243B1A60704758
:103CD00039B16A4A203A12680243684B203B1A60A5
:103CE00006E0664A203A12688243644B203B1A6021
:103CF000704739B1614A1C3A126802435F4B1C3B62
:103D00001A6006E05D4A1C3A126882435B4B1C3B1A
:103D10001A60704739B1594A143A12680243574B36
:103D2000143B1A6006E0554A143A12688243534B1A
:103D3000143B1A60704739B1504A103A1268024376
:103D40004E4B103B1A6006E04C4A103A1268824310
:103D50004A4B103B1A60704739B1484A1C3212680E
:103D60000243464B1C331A6006E0444A1C32126878
:103D70008243424B1C331A60704739B13F4A2032AC
:103D8000126802433D4B20331A6006E03B4A203262
:103D900012688243394B20331A60704739B1374A71
:103DA000243212680243354B24331A6006E0334A4A
:103DB000243212688243314B24331A60704739B180
:103DC0002E4A2C32126802432C4B2C331A6006E028
:103DD0002A4A2C3212688243284B2C331A607047CF
:103DE00039B1264A303212680243244B30331A600C
:103DF00006E0224A303212688243204B30331A6088
:103E00007047012808D11D493C31096841F008017B
:103E10001A4A3C32116007E018493C31096821F028
:103E20000801164A3C321160704739B1134A273AEB
:103E300012780243114B273B1A7006E00F4A273ACB
:103E4000127882430D4B273B1A7070470B48403065
:103E5000006840F0807009494031086070470146B1
:103E60000020064A283A12680A400AB1012000E000
:103E700000207047014926390870704734380240E5
:103E800010B50446FA48844208D101211020FFF7FA
:103E900052FF00211020FFF74EFF57E0F548844203
:103EA00009D101214804FFF735FF00214FF400300C
:103EB000FFF730FF4AE0F048844209D1012188042D
:103EC000FFF728FF00214FF48020FFF723FF3DE09C
:103ED000EA48844209D10121C804FFF71BFF0021F1
:103EE0004FF40020FFF716FF30E0E548844209D187
:103EF00001210805FFF70EFF00214FF48010FFF7A6
:103F000009FF23E0DF48844208D101212020FFF788
:103F100012FF00212020FFF70EFF17E0DA4884424D
:103F200009D101218807FFF7F5FE00214FF08040FD
:103F3000FFF7F0FE0AE0D548844207D10121400591
:103F4000FFF7E8FE00216005FFF7E4FE10BD2DE954
:103F5000FF4705460E460024A14600BFA046B08993
:103F600000B100BF2C8A24F44054F08804432C8212
:103F7000AC8941F20C608443B0883189084371896F
:103F800008430443AC81AC8A24F44074B0890443F0
:103F9000AC826846FFF74FFDB548854202D0B9486C
:103FA000854202D1DDF80C9001E0DDF80890A88987
:103FB00000F4004040B109EBC90000EB0910316882
:103FC0004900B0FBF1F707E009EBC90000EB09106D
:103FD00031688900B0FBF1F76420B7FBF0F0040111
:103FE0002009642101FB1078A88900F4004040B149
:103FF000322000EBC800B0FBF1F000F007000443F2
:1040000008E0322000EB08106421B0FBF1F000F072
:104010000F0004432C81BDE8FF874FF41651016067
:1040200000218180C18001810C2141810021818199
:10403000704710B502460020108A20F470600B888B
:104040004C8823438C882343CC8823431843108215
:1040500010BD0021018041808180C180704721B165
:10406000828942F40052828104E082894DF6FF7316
:104070001A4082817047028B02F47F420283028BD6
:104080000A430283704721B1828942F4004282814F
:1040900003E08289C2F30E028281704721B1828AD5
:1040A00042F40062828204E0828A4FF2FF731A4077
:1040B00082827047C1F30802828070470146888877
:1040C000C0F308007047028A4FF6F0731A4002826C
:1040D000028A0A430282704721B1828942F00202B9
:1040E000828104E082894FF6FD731A408281704715
:1040F00082894FF2FF731A40828182890A4382814A
:104100007047028A4FF6DF731A400282028A0A431E
:104110000282704721B1028A42F48042028204E0A6
:10412000028A4BF6FF731A4002827047818941F080
:1041300001018181704721B1828A42F008028282A6
:1041400004E0828A4FF6F7731A4082827047028B2E
:10415000D2B20283028B42EA01220283704721B16C
:10416000828A42F02002828204E0828A4FF6DF7364
:104170001A408282704721B1828A42F01002828204
:1041800004E0828A4FF6EF731A4082827047828A77
:104190004FF6FB731A408282828A0A4382827047FA
:1041A00021B1828A42F00202828204E0828A4FF6C2
:1041B000FD731A40828270471AB1838A0B4383824F
:1041C00002E0838A8B4383827047F0B50346002464
:1041D00000260025002040F66A17B94200D100BF32
:1041E0001846C1F3421401F01F06012707FA06F52D
:1041F000012C01D10C3004E0022C01D1103000E080
:1042000014301AB107682F43076002E00768AF4314
:104210000760F0BD02460020B1F5007F00D100BF6D
:1042200013880B400BB1012000E00020704701F41F
:104230000072B2F5007F00D100BFCA430280704710
:1042400070B50246002400230025002040F66A16BF
:10425000B14200D100BFC1F3421501F01F03012696
:1042600006FA03F3012D13D19689334017E00000BD
:10427000001001400044004000480040004C004055
:10428000005000400014014000780040007C0040D5
:10429000022D02D1168A334001E0968A33400C1277
:1042A000012606FA04F41688344013B10CB101203B
:1042B00000E0002070BD10B50022002340F66A1413
:1042C000A14200D100BF0A1201249440A3B2DC43F2
:1042D000048010BD08B50022009200200021CA22EF
:1042E000F94B1A6053221A60F74A183A126822F002
:1042F000A002F54B183B1A6000BFF34A183A126847
:1043000002F02001009A521C0092009AB2F5003F80
:1043100001D00029F1D0EC4A183A126802F02002CC
:104320000AB1012000E00020FF22E74B1A6008BD1F
:1043300008B50022009200200021E34A183A1268D2
:1043400002F04002E2B9421EDF4B183B1A6000BF88
:10435000DD4A183A126802F04001009A521C00929D
:10436000009AB2F5803F01D00029F1D0D64A183A20
:10437000126802F040020AB1012002E0002000E0D1
:10438000012008BD38B50020009000240025CA2077
:10439000CD49086053200860FFF7CAFF00B952E01A
:1043A0000020C9492439086042F20110091D086043
:1043B000081D006800F00700091D086000BFC24822
:1043C0001838006800F004040098401C0090009821
:1043D000B0F5803F01D0002CF1D0BB481838006800
:1043E00000F0040008B900252DE0B7481C3800682B
:1043F0000020B5491C3908604FF6FF70B2491039EA
:104400000860B248091F08600020AF490C390860F5
:10441000091D0860091D0860AB4908310860AA49F8
:1044200018310860A84920310860091D0860A649B4
:1044300018390860A4491C310860FFF74BFF08B920
:10444000002500E00125FF209F490860284638BD6F
:104450009D481838006820F080009B491839086092
:10446000704730B504460025CA209749086053209C
:104470000860FFF75DFF00B91DE093481C38006835
:1044800020F0400090491C39086008460068216807
:1044900008438D491C3908608B491439A0680860AD
:1044A00008460068A18840EA01408749143908603D
:1044B000FFF7CEFF0125FF2083490860284630BD65
:1044C000002101607F214160FF218160704718B1A8
:1044D000FF217D4A116004E0CA217B4A116053210B
:1044E0001160704730B504460025CA20764908603F
:1044F00053200860FFF71CFF00B914E044B1724874
:104500001C38006840F010006F491C39086007E053
:104510006D481C38006820F010006B491C39086099
:10452000FFF796FF0125FF2067490860284630BD48
:10453000CA21654A11605321116040B162491C399A
:10454000096841F02001604A1C3A116007E05E49A9
:104550001C39096801F0DF015B4A1C3A1160FF2138
:10456000594A116070470146002204E0501CC2B253
:10457000A1F10A00C1B20A29F8DA100741EA106075
:104580007047014600BF080900EB8000420001F0BF
:104590000F001044C0B270472DE9F04105460C46AB
:1045A0000026002755B948481C38006800F0400034
:1045B00000B102E00020E07000BF0EE042481C386D
:1045C000006800F0400020B12078FFF7DAFF0646CF
:1045D00002E00020E07000BF00BF55B12078000469
:1045E000617840EA0120A1780843E17840EA014679
:1045F00011E02078FFF7B7FF4FEA00486078FFF737
:10460000B2FF48EA0028A078FFF7ADFF48EA0008AB
:10461000E07848EA0046CA202B4908605320086029
:10462000FFF786FE08B9002714E0294830402649E4
:1046300024390860FFF70CFF23481C38006800F09D
:10464000200030B9FFF746FE08B9002702E0012735
:1046500000E00127FF201C4908603846BDE8F081D2
:104660000021C170017041708170704770B50646BD
:104670000C460025144824380068154900EA010555
:10468000C5F305402070C5F30620607005F07F007B
:10469000A07005F48000000CE0705EB92078FFF790
:1046A00070FF20706078FFF76CFF6070A078FFF7F4
:1046B00068FFA07070BD00200349091D0868024909
:1046C000203909687047000024280040FF007F005F
:1046D0007F7F7F002DE9F04105460C46002600272C
:1046E0004DB9607800F01000102804D1607820F0F7
:1046F00010000A30607005B908E06078FFF741FFEC
:104700000646A078FFF73DFF064600BF55B1E078AA
:104710000004617840EA0120A1780843217840EA4A
:10472000413611E0E078FFF71EFF4FEA004860785D
:10473000FFF719FF48EA0028A078FFF714FF48EABE
:104740000008207848EA4036CA20FE490860532015
:104750000860FFF7EDFD08B9002714E0FA48304083
:10476000F84920390860FFF773FEF6481C380068E6
:1047700000F0200030B9FFF7ADFD08B9002702E0D6
:10478000012700E00127FF20EE4908603846BDE818
:10479000F08101210170817041700021C17070476A
:1047A00070B506460C460025E64820380068E64904
:1047B00000EA0105280CE070C5F30420607005F0E4
:1047C0003F00A070C5F3423020705EB9E078FFF77B
:1047D000D8FEE0706078FFF7D4FE6070A078FFF735
:1047E000D0FEA07070BD2DE9F04105460E4614467E
:1047F00000276DB9D3481C38006800F0400000B1B4
:1048000002E00020E07000BFA06800B91AE019E0E3
:10481000CC481C38006800F0400020B12078FFF739
:10482000B0FE074602E00020E07000BFA06820B99B
:10483000207BFFF7A6FE074604E0207BFFF7A1FEE2
:10484000074600BF95B120780004617840EA012056
:10485000A1780843E17840EA0140217B40EA016009
:10486000A1680843616840EA01071BE02078FFF770
:104870007AFE4FEA00486078FFF775FE48EA0028A4
:10488000A078FFF770FE48EA0008E07848EA0048A0
:10489000207BFFF768FE48EA0060A1680843616872
:1048A00040EA0107CA20A749086053200860B6F50E
:1048B000807F03D1A3480838076002E0A148001FA9
:1048C0000760FF209F490860BDE8F0810021C170AA
:1048D000017041708170816001210173002141608C
:1048E00070472DE9F04106460F4614460025B7F5FE
:1048F000807F03D193480838056802E09148001F83
:104900000568C5F305402070C5F30620607005F00A
:104910007F00A07005F48000000CE070C5F3056016
:10492000207305F08040A06005F0803060607EB9A3
:104930002078FFF726FE20706078FFF722FE607077
:10494000A078FFF71EFEA070207BFFF71AFE2073F1
:10495000BDE8F08138B50246002400940023002011
:10496000CA24784D2C6053242C6041B1754C1C3CFA
:1049700024681443734D1C3D2C6001201EE0714CD3
:104980001C3C246894436F4D1C3D2C6000BF6D4C53
:10499000183C246804EA1223009C641C0094009CC8
:1049A000B4F5803F01D0002BF1D0664C183C246850
:1049B00004EA12240CB9002000E00120FF24614D1C
:1049C0002C6038BD30B50023CA245E4D2C605324C2
:1049D0002C6041EA0203B0F5807F03D1594C2034AA
:1049E000236002E0574C24342360FF24554D2C6093
:1049F00030BD01460020B1F5807F05D1514A2032FB
:104A00001268C2F30E0004E04E4A24321268C2F368
:104A10000E007047CA214B4A116053211160494969
:104A20001C39096821F00701464A1C3A11601146F9
:104A3000096801431160FF21424A11607047CA2191
:104A4000404A1160532111603E4910390860FF212E
:104A5000116070473B481038006880B2704718B545
:104A600001460023009300220020CA23354C236016
:104A70005323236049B1334B1C3B1B6843F48063D1
:104A8000304C1C3C236001201FE02E4B1C3B1B685C
:104A900023F480632B4C1C3C236000BF294B183B44
:104AA0001B6803F00402009B5B1C0093009BB3F5A2
:104AB000803F01D0002AF1D0224B183B1B6803F045
:104AC00004030BB9002000E00120FF231D4C2360EC
:104AD00018BDCA221B4B1A6053221A60194A1C3A8D
:104AE000126822F48022174B1C3B1A601A46126887
:104AF00040EA01031A43134B1C3B1A60FF22114B7F
:104B00001A6070470F481C38006800F48020704716
:104B1000CA220C4B1A6053221A600A4A1C3A1268C5
:104B200022F4E002074B1C3B1A601A46126840EA66
:104B300001031A43034B1C3B1A60FF22014B1A600E
:104B400070470000242800403FFFFF0070B5044676
:104B50000D460026CA20F649086053200860FFF77A
:104B6000E7FB00B907E044EA0500F1490C390860A9
:104B7000FFF76EFC0126FF20ED490860304670BD4E
:104B800030B504460025CA20E94908605320086072
:104B9000FFF7CEFB00B914E044B1E5481C380068CB
:104BA00040F08000E2491C39086007E0E0481C380A
:104BB000006820F08000DE491C390860FFF748FCDF
:104BC0000125FF20DA490860284630BDCA21D84AAD
:104BD00011605321116040B1D5491C39096841F475
:104BE0000001D34A1C3A116007E0D1491C39096819
:104BF00021F40001CE4A1C3A1160FF21CC4A116019
:104C00007047CA21CA4A116053211160C8491C3932
:104C1000096821F40021C64A1C3A1160114609684E
:104C200001431160FF21C24A1160704770B503460D
:104C300000200024CA25BE4E356053253560BC4D8A
:104C4000183D2D6805F4803555B100E0641CB84D61
:104C5000183D2D6805F4803515B1B4F5003FF5D148
:104C6000B34D183D2D6805F480353DB943EA010583
:104C70001543AF4E18363560012000E00020FF25B7
:104C8000AB4E356070BD10B50A460021A84B1C3BE9
:104C90001B6840F6080423EA04011AB140F40063DB
:104CA000194300E00143CA23A14C2360532323602E
:104CB0009F4B1C3B1960FF23236010BD2DE9F04181
:104CC00080460C4615460026002799480C3000689F
:104CD000984900EA0106964810300068964900EAB3
:104CE0000107C6F305402070C6F30620607006F089
:104CF0007F00A07006F48000000CE0700020E870D7
:104D0000C7F30420687007F03F00A870C7F3423073
:104D10002870B8F1000F17D12078FFF732FC20700F
:104D20006078FFF72EFC6070A078FFF72AFCA07077
:104D30006878FFF726FC6870A878FFF722FCA87057
:104D40002878FFF71EFC2870BDE8F0817848143001
:104D50000068704741B9764A1C32126822EA400264
:104D6000734B1C331A6007E0714A1C32126842EA26
:104D700040026F4B1C331A60704739B16C4A1C32C9
:104D8000126802436A4B1C331A6006E0684A1C3200
:104D900012688243664B1C331A60704764491C31A9
:104DA000096821F4C051624A1C3211601146096839
:104DB0000143116070475E491C31096821F4E061CC
:104DC0005B4A1C321160114609680143116070474B
:104DD00057491C31096821F4C041554A1C32116001
:104DE0001146096801431160704740B150491C31B8
:104DF000096841F080014E4A1C32116007E04C49BD
:104E00001C31096821F08001494A1C321160704749
:104E100040B147491C31096821F40041444A1C3221
:104E2000116007E042491C31096841F40041404AE1
:104E30001C321160704708B5002200923C4A2C32A7
:104E40000092009A02EB80020092009A116008BD65
:104E500008B501460020009035482C30009000989D
:104E600000EB810000900098006808BD30491C31BB
:104E7000096821F480312E4A1C32116011460968FC
:104E80000143116070472A491C31096821F400313F
:104E9000274A1C32116011460968014311607047AE
:104EA00023491C31096821F48021214A1C321160F8
:104EB00011460968014311607047F0B504460D467C
:104EC00000270026CA201A490860532008601848A5
:104ED0001838006800F0080050B100E0761C144853
:104EE0001838006800F0080010B1B6F5805FF5D101
:104EF0000F481838006800F0080098B90C481C38B2
:104F0000006800F0100058B945EA0400084908316B
:104F10000860FFF7DFF908B9002704E0012702E085
:104F2000002700E00027FF20014908603846F0BD57
:104F3000242800407F7F7F003FFFFF00CA223D4BB7
:104F40001A6053221A6091B13A4A1C3A126820F052
:104F500004031A43374B1C3B1A60364A1C32126852
:104F600000F004031A43334B1C331A6011E0314A3A
:104F70001C3A126820F004039A432E4B1C3B1A6023
:104F80002C4A1C32126800F004039A43294B1C334C
:104F90001A60FF22274B1A60704710B501460020A7
:104FA0000022244B183B1B68234C03EA040202EA4C
:104FB00001030BB1012000E0002010BD81B241F0DF
:104FC00080011C4A183A126802F0800262EA01016C
:104FD000184A183A1160704730B501460020002287
:104FE0000023144C1C34246804F00402114C1C3CB3
:104FF00024680C4002EAD13544EA05030D4C183C04
:10500000246804EA11121BB194B20CB1012000E033
:10501000002030BD002101098AB242F08002054B18
:10502000183B1B6803F0800363EA0202014B183B44
:105030001A607047242800407F3F010010B50446E5
:10504000FE48844208D101210846FEF774FE002183
:105050000120FEF770FE9DE0B4F1804F08D10121E0
:105060000846FEF757FE00210120FEF753FE91E0AF
:10507000F348844208D101210220FEF74BFE0021B3
:105080000220FEF747FE85E0EE48844208D1012168
:105090000420FEF73FFE00210420FEF73BFE79E0EE
:1050A000E948844208D101210820FEF733FE00219F
:1050B0000820FEF72FFE6DE0E448844208D101216C
:1050C0001020FEF727FE00211020FEF723FE61E0EE
:1050D000DF48844208D101212020FEF71BFE002179
:1050E0002020FEF717FE55E0DA48844208D101215E
:1050F0000220FEF720FE00210220FEF71CFE49E000
:10510000D548844209D101210804FEF714FE00218C
:105110004FF48030FEF70FFE3CE0D048844209D1C6
:1051200001214804FEF707FE00214FF40030FEF78E
:1051300002FE2FE0CA48844209D101218804FEF70B
:10514000FAFD00214FF48020FEF7F5FD22E0C5486E
:10515000844208D101214020FEF7DCFD00214020DF
:10516000FEF7D8FD16E0C048844208D10121802016
:10517000FEF7D0FD00218020FEF7CCFD0AE0BB4801
:10518000844207D101218015FEF7C4FD0021A0153E
:10519000FEF7C0FD10BD00220288A84B98420ED039
:1051A000AC4B98420BD0B0F1804F08D0A44B984242
:1051B00005D0A44B984202D0A34B984204D14FF69D
:1051C0008F731A404B881A43A04B984207D0A04BCC
:1051D000984204D04FF6FF431A400B891A430280CD
:1051E0004B68C3620B880385944B984202D0994B5D
:1051F000984201D18B7A03860123838270474FF056
:10520000FF3141600021018001814180817270473E
:105210000185828270470A46002101884FF68F730C
:10522000194011430180704741627047C162704765
:105230000146486A70470146088D704721B10288CF
:1052400042F00202028004E002884FF6FD731A4029
:105250000280704721B1028842F00402028004E01B
:1052600002884FF6FB731A400280704721B1028812
:1052700042F08002028004E002884FF67F731A40F9
:105280000280704702884FF6F7731A400280028846
:105290000A430280704702884FF6FF431A4002809B
:1052A00002880A430280704721B1028842F001025D
:1052B000028004E002884FF6FE731A4002807047B5
:1052C00070B5002400220023058C4FF6FE76354091
:1052D0000584028C8388048B4FF68F752C40B51E95
:1052E0002C400D882C43751E2A408D892A434D88F9
:1052F0002A43524DA84202D0564DA84213D14FF630
:10530000F7752A40CD892A434FF6FB752A408D88D0
:105310002A434FF6FF652B404FF6FF552B400D8A71
:105320002B434D8A2B43838004838D68456302841D
:1053300070BD70B5002400220023058C4FF6EF7677
:1053400035400584028C8388048B48F6FF752C4019
:105350004FF6FF452C400D884FF6FF7606EA0525EF
:105360002C434FF6DF752A408D8906EA05152A433E
:105370004D8806EA05152A43304DA84202D0354D26
:10538000A8421DD14FF67F752A40CD894FF6FF7692
:1053900006EA05152A434FF6BF752A408D8806EAAE
:1053A00005152A434FF6FF352B404FF2FF752B4072
:1053B0000D8A06EA85052B434D8A06EA85052B43AF
:1053C000838004838D688563028470BD70B500247A
:1053D00000220023058C4FF6FF6635400584028CC1
:1053E0008388848B4FF68F752C404FF6FC752C40CC
:1053F0000D882C434FF6FF552A408D894FF6FF76D6
:1054000006EA05252A434D8806EA05252A430B4D61
:10541000A84202D00F4DA84238D14FF2FF752A4062
:10542000CD894FF6FF7606EA05252A434FF6FF356C
:105430002A408D8806EA05252A4319E0000001402C
:105440000004004000080040000C00400010004034
:1054500000140040000401400040014000440140AD
:105460000048014000180040001C0040002000409F
:105470004EF6FF752B404DF6FF752B400D8A06EA60
:1054800005152B434D8A06EA05152B43838084833B
:105490008D68C563028470BD70B5002200230024AE
:1054A000058C4EF6FF7635400584038C8488828B0C
:1054B00048F6FF752A404FF6FF452A400D884FF603
:1054C000FF7606EA05252A434DF6FF752B408D89A8
:1054D00006EA05352B434D8806EA05352B43FE4D7C
:1054E000A84202D0FD4DA84208D14BF6FF752C40D2
:1054F0000D8A4FF6FF7606EA85152C438480828359
:105500008D680564038470BD002101804180818025
:1055100081608181C18101824182704770B50346FB
:10552000002000241846183001258D40ACB21D8C97
:10553000A5431D8409B108290AD100EB6100056863
:105540004FF68F76354005600568154305600FE01E
:105550000D1FC5F34E052844056848F6FF76354013
:10556000056005684FF6FF7606EA022635430560BA
:1055700070BD4163704781637047C16370470164C8
:1055800070470A460021018B4FF68F731940114373
:10559000018370470A460021018B48F6FF731940CA
:1055A0004FF6FF7303EA02231943018370470A464B
:1055B0000021818B4FF68F7319401143818370470F
:1055C0000A460021818B48F6FF7319404FF6FF739E
:1055D00003EA02231943818370470A460021018BA5
:1055E0004FF6F77319401143018370470A460021B3
:1055F000018B4FF2FF7319404FF6FF7303EA02234A
:105600001943018370470A460021818B4FF6F773D7
:1056100019401143818370470A460021818B4FF264
:10562000FF7319404FF6FF7303EA02231943818386
:1056300070470A460021018B4FF6FB731940114356
:10564000018370470A460021018B4FF6FF33194052
:105650004FF6FF7303EA02231943018370470A469A
:105660000021818B4FF6FB731940114381837047F2
:105670000A460021818B4FF6FF3319404FF6FF7326
:1056800003EA02231943818370470A460021018BF4
:105690004FF67F7319401143018370470A4600217A
:1056A000018BC1F30E014FF6FF7303EA0223194386
:1056B000018370470A460021818B4FF67F731940A2
:1056C0001143818370470A460021818BC1F30E018B
:1056D0004FF6FF7303EA02231943818370470A469A
:1056E0000021018C4FF6FD7319401143018470476E
:1056F0000A460021018C4FF6F773194011430184CB
:1057000070470A460021018C4FF6DF7319404FF6AF
:10571000FF7303EA02131943018470470A4600210C
:10572000018C4FF67F7319404FF6FF7303EA0213A3
:105730001943018470470A460021018C4FF6FF533C
:1057400019404FF6FF7303EA02231943018470479F
:105750000A460021018C4FF2FF7319404FF6FF7388
:1057600003EA02231943018470470A460021018C91
:105770004DF6FF7319404FF6FF7303EA02331943E6
:105780000184704730B5002301248C40A3B2048CFF
:105790009C430484048C02FA01F5ADB22C430484CA
:1057A00030BD30B5002304248C40A3B2048C9C434C
:1057B0000484048C02FA01F5ADB22C43048430BD9C
:1057C000828B4FF2FF331A408283828B4FF6FF7336
:1057D00003EA01231A4382837047F0B50C4615464D
:1057E000002100220026078C4EF6FF7C07EA0C07FA
:1057F0000784818B028C4FF6FF7707EA043640F668
:10580000FF4739404FF6FF7707EA052739434FF640
:10581000FF7707EA0337394345F6FF773A4046F406
:1058200080573A4381830284F0BD828B4FF6F37335
:105830001A408283828B0A4382837047F0B50C46FC
:105840001546002100220026078C4FF6FF6C07EA60
:105850000C070784818B028C4FF6FF7707EA04263A
:105860004FF60C7739404FF6FF7707EA03172F43BF
:1058700039434FF2FF573A4046F480773A438183E9
:105880000284F0BD028B4FF2FF331A400283028B79
:105890004FF6FF7303EA01231A4302837047F0B502
:1058A0000C461546002100220026078C4FF6EF7C9F
:1058B00007EA0C070784018B028C4FF6FF7707EA93
:1058C000041640F6FF4739404FF6FF7707EA0337E3
:1058D00039434FF6FF7703E0000001400004014028
:1058E00007EA052739434FF65F773A4046F010073D
:1058F0003A4301830284F0BD028B4FF6F3731A40E2
:105900000283028B0A4302837047F0B50C461546AA
:1059100000210022068C4FF6FE773E400684018B64
:10592000028C4FF60C7631407E1C06EA03162E439D
:1059300031434FF6F576324044F00106324301839D
:105940000284F0BD70B505460C46208850B9238905
:10595000A28861882846FFF7D8FFE1882846FFF72C
:10596000CBFF25E0208804280AD12389A2886188FA
:105970002846FFF794FFE1882846FFF783FF17E0EA
:10598000208808280AD12389A28861882846FFF741
:1059900055FFE1882846FFF748FF09E02389A288E0
:1059A00061882846FFF719FFE1882846FFF708FFBE
:1059B00070BD002101804180012181800021C180D2
:1059C000018170472DE9F04105460C46002601276C
:1059D000608808B9022600E00026A088012801D1CD
:1059E000022700E001272088A0B92389A2886188C6
:1059F0002846FFF78AFFE1882846FFF77DFF2389C5
:105A00003A4631462846FFF74AFFE1882846FFF725
:105A100039FF13E02389A28861882846FFF73FFFFA
:105A2000E1882846FFF72EFF23893A46314628466B
:105A3000FFF76BFFE1882846FFF75EFFBDE8F081C6
:105A40000146486B70470146886B70470146C86B3A
:105A500070470146086C70470A884B881A438B8848
:105A60001A43CB881A430B891A434B891A438B89F3
:105A70001A43A0F8442070470021018041808180B2
:105A8000C180018141818181704731B1B0F84420EA
:105A900042F40042A0F8442005E0B0F84420C2F3EC
:105AA0000E02A0F84420704721B1828842F004021F
:105AB000828004E082884FF6FB731A408280704730
:105AC00021B1828842F00102828004E082884FF690
:105AD000FE731A40828070471AB183890B43838119
